:020000040800F2
:10000000F0040020DD01000847150008FF14000877
:1000100045150008E9020008011B00080000000067
:100020000000000000000000000000004B15000868
:10003000EB02000800000000491500084D150008FB
:10004000F7010008F7010008F7010008F7010008B0
:10005000F7010008F7010008F7010008F7010008A0
:10006000F7010008F7010008F7010008F701000890
:10007000F7010008F7010008F7010008F701000880
:10008000F7010008F7010008F7010008F701000870
:10009000F7010008F7010008F7010008F701000860
:1000A000F7010008F7010008F7010008F701000850
:1000B000F7010008F7010008F7010008F701000840
:1000C000F7010008F7010008F7010008F701000830
:1000D000F7010008F7010008F51A0008F701000809
:1000E000F7010008F7010008F7010008F701000810
:1000F000F7010008F7010008F7010008F701000800
:10010000F7010008F7010008F7010008F7010008EF
:10011000F7010008F7010008F7010008F7010008DF
:10012000F7010008F7010008F7010008F7010008CF
:10013000F7010008F7010008F7010008F7010008BF
:10014000F7010008F7010008F7010008F7010008AF
:10015000F7010008F7010008F7010008F70100089F
:10016000F7010008F7010008F7010008F70100088F
:10017000F7010008F7010008F7010008000000007F
:10018000F7010008F7010008F7010008F70100086F
:10019000F7010008F7010008F7010008F70100085F
:1001A000F7010008F7010008F7010008F70100084F
:1001B000F7010008F7010008F7010008F70100083F
:1001C000F7010008F7010008DFF80CD000F07AF81A
:1001D00000480047451B0008F004002006488047FF
:1001E00006480047FEE7FEE7FEE7FEE7FEE7FEE71C
:1001F000FEE7FEE7FEE7FEE7ED150008C90100088F
:100200002DE9F05F0546002092469B46884606464B
:10021000814640241BE0284641464746224600F0DE
:1002200041F853465A46C01A914110D31146184618
:10023000224600F028F82D1A67EB01084F462246A7
:100240000120002100F01FF817EB00094E41201E8D
:10025000A4F10104DFDC484631462A464346BDE8A6
:10026000F09FD2B201E000F8012B491EFBD270478B
:100270000022F6E710B513460A4604461946FFF772
:10028000F0FF204610BD202A04DB203A00FA02F1DC
:10029000002070479140C2F1200320FA03F3194374
:1002A00090407047202A04DB203A21FA02F0002116
:1002B000704721FA02F3D040C2F120029140084376
:1002C00019467047064C074D06E0E06840F0010310
:1002D00094E8070098471034AC42F6D3FFF778FF54
:1002E000CC1B0008EC1B0008FEE77047F0B5534D2F
:1002F000D5E90110091A18297EDD514B002203F1BE
:1003000019011C5C0F2C11D11844007E38B104284F
:1003100005D0142803D0242801D0342806D1002089
:100320001C5C0C541A54401C1928F9D34448A038BA
:100330005FF0000420F81420641C102CFAD3B1F8EC
:100340000140C4F30A0404808E78CC78F708A6092B
:1003500047EA4414C4F30A0444800F794C7946EA0E
:100360008706670846EA8424C4F30A0484808C79EB
:1003700047EAC4162709C6F30A04C480CC7947EAC1
:100380000417E609C7F30A0404810F7A4C7A46EA97
:100390004706A70846EA4424C4F30A0444818C7A39
:1003A00047EA84166409C6F30A068681CE7A44EACF
:1003B000C604C4818C89C4F30A0404824E7B8C7BFE
:1003C000F708A60947EA4414C4F30A044482CF7B21
:1003D0000C7C46EA8706670846EA8424C4F30A04CC
:1003E00084824C7C47EAC4162709C6F30A04C482F7
:1003F0008C7C47EA041700E01FE0E609C7F30A0413
:100400000483CF7C0C7D46EA4706A70846EA4424CD
:10041000C4F30A0444834C7D47EA84166409C6F396
:100420000A068683897D44EAC101C1836A6000208F
:10043000AA601A54401C1F28FBD3F0BD0000002006
:10044000BC00002090F83510022903D080214165BE
:1004500001207047052180F835100068016821F0FF
:1004600001010160002070472DE9F84F00224FF094
:1004700001094FF0030A4FF00F0E00BF0B6809FA95
:1004800002F42340A34270D14D68012D05D0022D06
:1004900003D0112D01D0122D11D185685700CE68DF
:1004A0000AFA07FC25EA0C05BE402E438660456823
:1004B0000E79A543C6F3001696402E434660C568E4
:1004C00056008F680AFA06F4A543B7402F43C76069
:1004D0004D68022D01D0122D12D1D5080F694FEAB7
:1004E000427C00EB8505AB462D6A4FEADC6C0EFAC8
:1004F0000CF807FA0CF725EA08052F43CBF8207013
:100500000D79076805F00305A743B5403D43056035
:100510004C68E40074D53D4C256845F48045256061
:10052000246822F00307960704F480440094384CB2
:10053000360F2744D7F80848DFF8D8C00EFA06F57A
:10054000604524EA050401D100252EE0324DA84281
:1005500001D1012529E0314DA84201D1022524E035
:100560002F4DA84202D103251FE049E02D4DA8429E
:1005700001D1042519E02C4DA84201D1052514E034
:100580002A4DA84201D106250FE0294DA84201D1EC
:1005900007250AE0274DA84201D1082505E0264D90
:1005A000A84201D1092500E00A25B540234E254384
:1005B000C7F808584D683468ED0324EA030400D5F1
:1005C0001C431E4D34602D1D4E682C68B60324EA72
:1005D000030400D51C43194E2C6008364D6834685E
:1005E000ED0224EA030400D51C43144D34600C359D
:1005F0004E682C68B60224EA030400D51C432C6024
:10060000521C102AFFF43AAFBDE8F88F443802407C
:100610000030014000000240000402400008024097
:10062000000C02400010024000140240001802407A
:10063000001C02400020024000240240003C014017
:1006400001488068704700000C0000200248816863
:1006500002781144816070470C000020032010B51F
:1006600000F06EF8002000F005F800F023F80020FC
:1006700010BD000070B50D4D04464FF47A700C4A61
:1006800029781268B0FBF1F0B2FBF0F000F09AFDAF
:1006900048B9102C07D200222146501E00F030F835
:1006A00000206C6070BD012070BD00000C000020B7
:1006B000180000200A4808B5016841F08051016027
:1006C000006800F0805000900548001D016841F46A
:1006D00080410160006800F48040009008BD000087
:1006E00040380240002809DB410900F01F02890060
:1006F000012001F1E0219040C1F8000170470000A5
:100700000E4BF0B41B680D46C3F30223C3F107067A
:10071000042E00D90426191D072901D2002300E068
:10072000DB1E012404FA06F19C40491E2940641E88
:10073000994014402143F0BC01F0E3B90CED00E016
:10074000064900F0070210B54FF6FF040868044B95
:10075000204040EA02201843086010BD0CED00E084
:100760000000FA050248016841F480710160704799
:10077000007000402DE9F84F04460078DFF824941B
:100780004FF000063746C0070ED0D9F8001021F40C
:100790000001C9F80010D9F80010626B1143C9F8C4
:1007A0000010606B00B90126FE4D206884350003FF
:1007B0000ED5E16B286820F4401008432860E06BF8
:1007C000B0F5801F01D010B102E0012600E0012742
:1007D00020684FF4800BC0020CD5216C286820F4EF
:1007E000400008432860206C584501D1012601E0F3
:1007F00000B901272068C10100D50126800666D511
:10080000E8483830016841F0805101600068DFF845
:1008100098A300F080500090DAF8001041F4807145
:10082000CAF80010FFF70CFF804605E0FFF708FF4D
:10083000A0EB080064287DD8DAF80000C005F5D5E3
:10084000DFF8608308F16808D8F8000010F4407001
:100850002AD0218E01F44071814225D0D8F80010B1
:10086000D8F8002021F4407142F48032C8F800200A
:10087000D8F8002022F48032C8F80020C8F8001010
:10088000D8F80000C0070FD0FFF7DAFE824607E075
:10089000FFF7D6FEA0EB0A0141F288308142CAD8A8
:1008A000D8F800008007F3D5206BC0F3012103299D
:1008B0007ED0D9F8001021F4F811C9F80010228E6A
:1008C000D8F80010C2F30B021143C8F800102078CA
:1008D000C00607D5286820F0807028602868A16BC2
:1008E000084328602188AF488830490405D5626EE6
:1008F000016821F44031114301602188090405D5C4
:10090000A26E016821F44021114301602168C903EE
:1009100005D5E26E016821F44011114301602168A0
:10092000890305D5226F016821F44001114301605C
:10093000217800E018E1490605D5626C016821F0D4
:100940000301114301602178090605D5A26C0168F5
:1009500021F00C01114301602188C90505D5E26C25
:10096000016821F03001114301602188890505D516
:10097000226D016821F0C001114301602188490501
:1009800005D5626D016821F4407111430160218831
:10099000090505D5A26D016821F44061114301608C
:1009A0002188C90407D5E26D016821F4405100E0B7
:1009B00041E0114301602188890405D5226E016858
:1009C00021F44041114301602168490205D5A26F1D
:1009D000016821F080611143016021684FF0006AD5
:1009E000890209D5E26F016821F0006111430160BD
:1009F000E16F514500D1012721680A0700D5012781
:100A0000490305D5626F016821F04071114301600F
:100A10002168090206D5D4F88020016821F08051B0
:100A200011430160DFF88491012E0ED02068B0F1EF
:100A3000007F0AD08FE05E4AD9F80030104023F4DE
:100A4000F8120243C9F8002039E7D9F800004E46F1
:100A500020F08060C9F80000FFF7F2FD804605E055
:100A6000FFF7EEFDA0EB080064287DD83068000198
:100A7000F6D421784B487C30C90712D0616B81B91C
:100A8000237A62680168D0F800C09201C1F3014185
:100A900042EA0142CCF3036142EA016141EA037197
:100AA000016021680A0303D5E26BB2F5801F04D010
:100AB000C9021AD5216C594517D16368016894F8A9
:100AC0000CC002689B01C1F3014143EA0141C2F33A
:100AD000027241EA0C6141EA027101602968626AAE
:100AE00021F01F01521E114329602168C90110D550
:100AF000238A62680168D0F800C09201C1F30361E3
:100B000042EA034242EA0162CCF3027142EA017115
:100B10000160216889010CD56168228A237B94F8E1
:100B200008C0890141EA024141EA036141EA0C71CE
:100B300001603168B04641F080613160FFF780FDAF
:100B4000064604E0FFF77CFD801B64280CD8D8F82B
:100B500000000001F6D56FB3D9F800004E4620F032
:100B60008050C9F8000000E079E0FFF769FD074612
:100B700005E000BFFFF764FDC01B64286FD8306834
:100B8000C0438000F6D50748216880300A0301D5AC
:100B9000E26B1AB1C90225D5216C19BB63690168E2
:100BA000277E08E00838024000700040003802400C
:100BB000FFFCFF0F5AE00268C1F301419B0143EAC9
:100BC0000143C2F3027143EA076242EA0171016024
:100BD00029686FF0FF03A26A21F4F85103EB0222A7
:100BE000114329602168890212D5E16F51450FD167
:100BF000238C6269016807689201C1F3036142EACC
:100C0000034242EA0162C7F3027142EA01710160E4
:100C10002178090716D561690268D0F800C08B01F8
:100C2000277FC2F30362CCF3014143EA014141EA69
:100C3000026141EA077101602868E16A20F44030EE
:100C400008432860306840F080503060FFF7F8FCBF
:100C5000044607E0FFF7F4FC001B642802D90320D8
:100C6000BDE8F88F3068C0438000F3D40020F7E778
:100C70002DE9F04705000F4663D0444E306800F080
:100C80000F00B84209D2306820F00F0038433060BE
:100C9000306800F00F00B84253D128683C4C8107FF
:100CA00012D5400703D5206840F4E0502060287832
:100CB000000703D5206840F460402060A9682068E0
:100CC00020F0F000084320602878C0072AD030497F
:100CD00068680839012810D00968022810D08907EF
:100CE00000292EDA216821F0030101432160FFF77A
:100CF000A7FC804641F288390DE009688903EFE7D7
:100D00008901EDE7FFF79CFCA0EB0801494502D9FA
:100D10000320BDE8F0876868216801F00C01B1EBA1
:100D2000800FEFD1306800F00F00B8420BD9306867
:100D300020F00F0038433060306800F00F00B842F8
:100D400001D00120E5E72878400705D5E96820684B
:100D500020F4E050084320602878000706D5286971
:100D6000216821F4604141EAC000206000F038F8B9
:100D70002168084AC1F30311515CC8400649086064
:100D800006480068FFF776FC0020C2E7003C0240FE
:100D900008380240B41B0008180000201000002092
:100DA0000449054809680068044AC1F38221515C7E
:100DB000C84070470838024018000020C41B0008D3
:100DC0000449054809680068044AC1F34231515C8E
:100DD000C84070470838024018000020C41B0008B3
:100DE000154910B51548096811F00C0213D04110CF
:100DF000042A0FD0082A0ED10F4C241F2268236822
:100E000002F03F025B0207D52068C0F38810A0FB08
:100E1000010106E0084610BD2168C1F38811A1FB5D
:100E200000010023FFF7ECF92168C1F30141491CDF
:100E30004900B0FBF1F010BD083802400024F40076
:100E40002DE9F84F04004FF000076ED02078DFF84E
:100E500068A3AAF10408C007A8F104054CD0DAF889
:100E600000105046C1F38101012908D00068C0F389
:100E7000810002280AD1D8F80000400206D528686F
:100E8000800339D560680028DFD035E06068B0F5B0
:100E9000803F0BD010B1B0F5A02F11D0286820F4FE
:100EA00080302860286820F4802002E0286840F420
:100EB00080302860606890B1FFF7C2FB06460AE008
:100EC000286840F480202860F0E700BFFFF7B8FBF7
:100ED000801B642872D828688003F7D50CE0FFF7E0
:100EE000AFFB064605E000BFFFF7AAFB801B6428A6
:100EF000F0D828688003F7D42078800742D5DAF844
:100F00000010504611F00C0F08D00068C0F38100AB
:100F100002280BD1D8F80000400207D428688007C7
:100F200018D5E068012800D114E041E1E06800280C
:100F3000286817D040F001002860FFF781FB0646C3
:100F400005E000BFFFF77CFB801B0228C2D82868A1
:100F50008007F7D52069296821F0F80141EAC0002F
:100F600028600FE020F001002860FFF769FB0646CB
:100F700005E000BFFFF764FB801B02281ED828682D
:100F80008007F7D42078000729D58B4861696C3039
:100F900000298146016812D041F001010160FFF78C
:100FA0004FFB064605E000BFFFF74AFB801B022807
:100FB00004D8D9F800008007F6D510E089E021F0C8
:100FC00001010160FFF73CFB064604E0FFF738FB38
:100FD000801B02287DD8D9F800008007F6D420783D
:100FE00040076BD5DFF8D09109F13809D9F8000036
:100FF000C0000BD4D9F8001041F08051C9F800109E
:10100000D9F80000012700F0805000906B4801687B
:10101000C90512D40168834641F480710160FFF76D
:101020000FFB064605E000BFFFF70AFB801B6428A4
:101030004FD8DBF80000C005F6D55F4EA0686836D3
:1010400001280AD008B1052811D0306820F001002D
:101050003060306820F0040002E0306840F00100A9
:101060003060A068A0B1FFF7EBFA83460CE030686F
:1010700040F004003060F0E7FFF7E2FAA0EB0B016C
:1010800041F28830814266D830688007F4D50EE09E
:10109000FFF7D6FA834607E0FFF7D2FAA0EB0B0181
:1010A00041F28830814256D830688007F4D42FB19D
:1010B000D9F8001021F08051C9F80010A069C8B318
:1010C000DAF80010C1F3810102294BD00228286808
:1010D00000E040E020F08070286003D0FFF7B0FA15
:1010E00004463BE0FFF7ACFA064604E0FFF7A8FA37
:1010F000801B02282FD828688001F7D4D4E9096220
:10110000D4E907012E4B570894F82C20084303EB31
:10111000074343EA8611084340EA026040F000506A
:10112000C8F80000286840F080702860FFF788FA4F
:10113000044606E03EE000BFFFF782FA001B0228EB
:1011400009D828688001F7D534E000BFFFF778FAA6
:10115000001B022802D90320BDE8F88F286880010F
:10116000F4D427E00128D8F8000021D0E16900F488
:1011700080028A421CD1216A00F03F028A4217D1C4
:10118000626A47F6C0710140B1EB821F10D1A16ABB
:101190004FF0FF3200F4403302EB5101B3EB014F4B
:1011A00006D194F82C1000F07060B0EB016F01D004
:1011B0000120D1E70020CFE708380240007000404E
:1011C0000000FFFF401EB0F1807F10B501D3012069
:1011D00010BD4FF0E02460610F21601700F091FC1A
:1011E0000020A0610721216110BD70472DE9F04169
:1011F00002680446002540F60F06D069116893681E
:10120000304205D183067BD58B0679D5216E7CE0F3
:1012100003F0010601F49077374371D0C70707D078
:10122000CF0505D501271762E26F42F00102E267A0
:10123000820708D5DA0706D0276802223A62E26FF1
:1012400042F00402E267420708D5DA0706D02368B5
:1012500004221A62E26F42F00202E26702070AD534
:1012600001F02002324306D0236808221A62E26F9E
:1012700042F00802E267020509D54A0107D5236852
:101280004FF400621A62E26F42F02002E267E26FFE
:10129000002A2ED0800605D5880603D5216E09B117
:1012A000204688472168E06F8968490602D410F01B
:1012B000280F20D0204600F033FA206881684906C4
:1012C00014D5816821F040018160E06E70B1184949
:1012D0000165E06EFFF7B6F800280AD0E06E016DF8
:1012E00000E02046BDE8F041084709E02046FFF74E
:1012F0007CFFBDE8F0812046FFF777FFE567F8E760
:10130000030605D50B0603D5616E0029E9D1F0E788
:101310004006EED54806ECD513682021204623F080
:10132000400313606167656600F0E8F8E1E70000DC
:101330000D17000810B5040002D0606F10B107E06F
:10134000012010BD002084F87000204600F026F82F
:10135000242060672068016821F0010101602046B7
:1013600000F048FA0128ECD0606A10B1204600F085
:101370004BF92068416821F4904141602068816800
:1013800021F02A0181602068016841F001010160BB
:101390002046BDE8104000F09BB9000010B586B0B3
:1013A000044614216846FEF763FF1249206888420C
:1013B0001DD11148016841F400310160006800F45A
:1013C000003005900C481038016841F008010160B8
:1013D00000680221002200F008000590602003232D
:1013E00007248DE81F0005486946FFF73DF806B061
:1013F00010BD00000044004040380240000C024094
:1014000070B5836F202B4BD1B9B1B2B190F8703069
:10141000012B45D08368012680F870600024416567
:1014200035030466AB42A0F85820A0F85A204FF0CC
:10143000FF0107D1026912B126E0012070BD40F220
:10144000FF1121E04FF07F02E3B1B3F1805F1ED0C6
:10145000A0F85C402221C467816701688A6842F075
:1014600001028A608168A94201D10169B1B10D49C7
:10147000016680F870400068016841F49071016075
:10148000002070BD036933B9A0F85C10E2E7016980
:1014900009B13F21F8E7A0F85C20DBE70249E7E764
:1014A000022070BD9B1700084117000830B4006887
:1014B0000F4988421AD10F4C0F4A2178137860687F
:1014C0000F2902D00F2B04D008E00F2B01D00020F1
:1014D00011701154401C192800D900206060064882
:1014E000012230BC03498038FFF78ABF30BC704707
:1014F0000044004000000020BC0000207047FEE7D0
:10150000F0B40E4800210C4F0C260D4ABB140760A6
:10151000426003275A0183605C009D105310C0E9AC
:101520000561C161C0E90817C0E90A23C0E90345A4
:10153000F0BCFFF7FFBE0000004400403C0000206C
:10154000A0860100FEE7704770477047FFF77EB83E
:1015500030B5B3B0302121A8FEF78AFE14212DA8A2
:10156000FEF786FE84216846FEF782FEFFF7FAF852
:101570001C48016841F080510160006800F0805013
:1015800032901948016821F4404141F480410160E2
:1015900000680123022400F44040329098050421A1
:1015A0004822CDE9274029A81D0480E816002C9484
:1015B00021A8CDE92135FFF743FC2DAA0F210025F5
:1015C00082E83200E002CDE9300502212DA8FFF7C4
:1015D0004FFB8020129500906846FFF7CBF833B0A0
:1015E00030BD0000403802400070004005484FF018
:1015F00000610368034A43F470030360803A11609A
:101600007047000088ED00E090F82410C90706D06C
:101610000168836A4A6822F400321A434A6090F8EB
:101620002410890706D50168C36A4A6822F480320B
:101630001A434A6090F82410490706D50168036BE5
:101640004A6822F480221A434A6090F8241009075D
:1016500006D50168436B4A6822F400421A434A6087
:1016600090F82410C90606D50168836B8A6822F4B5
:1016700080521A438A6090F82410890606D50168C2
:10168000C36B8A6822F400521A438A6090F82410CF
:10169000490611D50168036C4A6822F480121A4386
:1016A0004A60016CB1F5801F06D10168436C4A683D
:1016B00022F4C0021A434A6090F82410090606D5A5
:1016C0000168826C486820F400201043486070472D
:1016D00038B500250446C567FEF7B2FF034620680B
:1016E000006800070BD56FF07E4000900022204676
:1016F0004FF4001100F0ACF908B1032038BD2020F0
:10170000606784F87050A067002038BD10B5806B0A
:101710000021A0F85A10A0F85210FFF766FD10BD86
:1017200010B50168202200230C6824F490740C602A
:1017300001688C6824F001048C608267036610BD28
:1017400010B5816FB0F85C202229016804D0886947
:1017500040F00800886110BD496A436D114019804E
:10176000416D891C4165B0F85A10491EA0F85A1005
:10177000B0F85A100029EED10168202200230C682D
:1017800024F490740C6001688C6824F001048C606F
:1017900082670366FFF78AFE10BD10B5816FB0F84F
:1017A0005C202229016804D0886940F00800886123
:1017B00010BD496A436D11401970416D491C416566
:1017C000B0F85A10491EA0F85A10B0F85A10002963
:1017D000EED10168202200230C6824F490740C6080
:1017E00001688C6824F001048C6082670366FFF74F
:1017F0005DFE10BD2DE9F04104468068DFF820C28F
:10180000884F2368D4E90452E16928431E68002503
:101810000A438549104306EA0C0606431E604FF44E
:1018200000422068E668436823F440533343436032
:101830002368A669206AD3F808C030432CF43066C8
:1018400006439E602068B8420AD1086810F0030081
:1018500052D001287BD002287AD003286ED186E0AE
:10186000724B98420AD1086810F00C0079D0042815
:101870007BD0082877D00C2860D178E06C4B984258
:101880000AD1086810F030006BD010286DD02028E5
:1018900069D0302852D16AE0664B98420AD1086874
:1018A00010F0C0005DD040285FD080285BD0C028F9
:1018B00044D15CE0604B98420DD1086810F4407050
:1018C0004FD0B0F5807F50D0B0F5007F4BD0B0F551
:1018D000407F33D14BE0594B98420FD1086810F448
:1018E000406009D0B0F5806F3FD0B0F5006F3AD0BE
:1018F000B0F5406F22D13AE0012120E0504B9842F0
:101900000DD1086810F440502BD0B0F5805F2CD07A
:10191000B0F5005F27D0B0F5405F0FD127E0494B0D
:1019200098420BD1086810F440401AD0B0F5804FAF
:101930001BD0904217D0B0F5404F18D01021E0696D
:101940004FF6EF7690423AD1092961D202E00CE0DD
:1019500009E006E0DFE801F00D10255C285C5C5C26
:101960002B000021EBE70221E9E70421E7E708214A
:10197000E5E7FFF715FA01E0FFF722FA616840009A
:1019800000EB5100B0FBF1F080B2A0F11001B142C8
:101990003ED84FF6F0732168C0F34202184010435E
:1019A00026E02949606805E0FFF71AFAE6E7606873
:1019B0004FF4803101EB5001B1FBF0F0E4E709296D
:1019C00026D2DFE801F0050817251C2525251F0074
:1019D000FFF7E6F901E0FFF7F3F9616800EB51006A
:1019E000B0FBF1F080B2A0F11001B14210D8216833
:1019F000C8600EE06068154901EB500105E0FFF793
:101A0000EFF9EAE7606802EB5001B1FBF0F0E9E7BB
:101A100001250020206660662846BDE8F0810000B0
:101A2000F369FFEF0010014090380240004400408D
:101A300000480040004C00400050004000140140AD
:101A400000780040007C00400048E8010024F400D9
:101A50002DE9F0479A4617460E460446089D4FF07A
:101A600000094FF0200839E0681C37D0FEF7E8FD88
:101A7000A0EB0A00A84222D80DB3206801684907EC
:101A80002CD5C069C043000528D423684FF40061F9
:101A9000196221680B6823F4D0730B6021688B688E
:101AA00023F001038B60C4F87480C4F87880C4F814
:101AB0007C8000BF032084F87090BDE8F087216827
:101AC0000B6823F4D0730B6021688B6823F001034B
:101AD0008B60C4F87480C4F87880EBE72068C06934
:101AE00036EA000004D00020B842BDD00020E4E770
:101AF0000120F9E70148FFF779BB00003C00002016
:101B0000FEE7090700284FEA116104DB00F1E0203D
:101B100080F80014704700F00F0000F1E02080F81A
:101B2000141D704702E008C8121F08C1002AFAD12C
:101B300070477047002001E001C1121F002AFBD14D
:101B40007047000008B5FEF789FDFFF701FD164854
:101B5000016841F004010160016801F00401009195
:101B6000016841F080010160016801F0800100918D
:101B7000016841F008010160006800F00800009071
:101B8000FFF7BEFC002226201146FEF7B9FD2620F5
:101B9000FEF7A8FD054901220548FFF731FC00BF0B
:101BA000FEF7A4FBFCE700003038024000000020F4
:101BB0003C000020000000000000000001020304BF
:101BC000060708090000000001020304EC1B0008DE
:101BD000000000201C000000241B0008081C000856
:101BE0001C000020D4040000341B0008000000008A
:101BF00000000000000000000100000010000000D4
:081C0000000000000024F400C4
:04000005080001C925
:00000001FF
